120250326IPCA Energy               50349493300000000058650000019
2000000100100350651000025874125621986732100000000002150Filipa Cunha               
2000000100200351379241963651911230321070200000000002117Maria Sousa                
2000000100300350890000078901234520544108100000000004721Beatriz Lopes              
2000000200400351012000090123456791585587600000000001008Luis Pacheco               
2000000100500351567000145678901218672387300000000001966Luis Pacheco               
2000000200600359527153005628669181195152900000000003142Filipa Cunha               
2000000200700351394490954220401393134615900000000001092Ines Ferreira              
2000000200800358921910082575702712508493500000000002117Paula Gomes                
2000000100900356198737640522101319818821800000000001949Maria Sousa                
2000000201000352100000901234567810705397700000000003948Filipa Cunha               
2000000101100350616454169850728016976969000000000002503Paula Silva                
2000000201200350223000000000007926473464300000000002587Diogo Matos                
2000000201300351234000789012345648370362700000000001562Ana Costa                  
2000000101400351500000890123456777530037100000000004586Joao Silva                 
2000000201500351678000156789012318031456400000000005510Carlos Pereira             
2000000201600351890000178901234519043171700000000004402Tiago Ribeiro              
2000000101700351901000189012345614495053700000000004234Bruno Teixeira             
2000000201800353722970753060385789121660600000000004738Diogo Matos                
2000000201900350081000678901234517101352200000000004318Maria Sousa                
900000000058650000019
