120250626IPCA Energy               50349493300000000034355000010
2000000200100351379241963651915630321070200000000004754Maria Sousa                
2000000200200350033000345678901965967180800000000005113Rui Martins                
2000000200300350045000456789018015517828800000000004104Luis Pacheco               
2000000200400351234000112345676248151235700000000001368Pedro Rocha                
2000000100500352227029075640748123760622400000000002240Ines Ferreira              
2000000100600359216228304574218513956366000000000004070Filipa Cunha               
2000000100700350064710678233125211813049800000000003010Andre Fonseca              
2000000200800356198737640522103519818821800000000002343Maria Sousa                
2000000100900350123000000000002789121660000000000004036Diogo Matos                
2000000101000350081000678901232417101352200000000003317Maria Sousa                
900000000034355000010
