120251026IPCA Energy               50349493300000000054865000019
2000000200100350223000001234565718020972800000000002625Helena Araujo              
2000000200200350789000067890128225172978800000000003885Ines Ferreira              
2000000100300350901000089012340727174088400000000001942Sofia Almeida              
2000000200400351123000101234560629860803000000000005670Rui Martins                
2000000200500358430848452326513422564102000000000005968Ana Costa                  
2000000100600359088356913207897824234808400000000003447Pedro Rocha                
2000000200700352070541909773872813544533700000000001803Maria Sousa                
2000000100800352522566122553305418069702100000000001488Ana Costa                  
2000000200900350064710678233125211813049800000000002450Andre Fonseca              
2000000101000350226061584359229512756308300000000001505Pedro Rocha                
2000000101100352100000901234561710705397700000000003640Filipa Cunha               
2000000201200350123000000000002712920959700000000005950Paula Gomes                
2000000201300355007758340771486814192533700000000002765Maria Sousa                
2000000101400350287100177597391215008867100000000001208Ana Costa                  
2000000201500357460194424871695214650788600000000001978Pedro Rocha                
2000000101600350123000000000002726473464500000000002485Diogo Matos                
2000000201700351901000189012340814495053700000000002258Bruno Teixeira             
2000000101800350123000000000002789121660000000000001208Diogo Matos                
2000000201900350000000000000002913801546500000000002590Filipa Cunha               
900000000054865000019
