120250126IPCA Energy               50349493300000000035002000010
2000000100100351563432614356371226857549500000000001995Fatura Eletricidade 01/2025
2000000100201934666254634158311821619960300000000003148Fatura Eletricidade 01/2025
2000000100300074020500634897815529816589900000000004902Fatura Eletricidade 01/2025
2000000100400350946809148598425837073684200000000001909Fatura Eletricidade 01/2025
2000000100500148759179296879767730921942600000000004816Fatura Eletricidade 01/2025
2000000100601895519169510953554234130768800000000005022Fatura Eletricidade 01/2025
2000000100701895563743247976429734613731400000000003423Fatura Eletricidade 01/2025
2000000100800330101618955542598932957098600000000005022Fatura Eletricidade 01/2025
2000000100900143793389494937664337876428400000000002305Fatura Eletricidade 01/2025
2000000101000146069849569470928538904960300000000002460Fatura Eletricidade 01/2025
900000000035002000010
