120241026IPCA Energy               50349493300000000049032000017
2000000200100350651000025874125621986732100000000001643Filipa Cunha               
2000000200200350223000000000007917661802300000000004697Andre Fonseca              
2000000100300350223000001234565718020972800000000002403Helena Araujo              
2000000200400351379241963651915630321070200000000002868Maria Sousa                
2000000100500350033000345678901965967180800000000002093Rui Martins                
2000000100600350890000078901232420544108400000000001891Beatriz Lopes              
2000000100700351012000090123454791585587900000000001271Luis Pacheco               
2000000200800352227029075640748123760622400000000003767Ines Ferreira              
2000000200900352070541909773872813544533700000000003751Maria Sousa                
2000000201000358921910082575703012508493500000000001163Paula Gomes                
2000000201100351163801278774360819718083300000000003271Rui Martins                
2000000201200352522566122553305418069702100000000001535Ana Costa                  
2000000101300350226061584359229512756308300000000002589Pedro Rocha                
2000000101400357460194424871695214650788600000000003565Pedro Rocha                
2000000201500351678000156789013418031456400000000004371Carlos Pereira             
2000000201600351890000178901232519043171700000000004635Tiago Ribeiro              
2000000101700350123000000000002789121660000000000003519Diogo Matos                
900000000049032000017
