120250326IPCA Energy               50349493300000000058650000019
2000000200100350651000025874125621986732100000000002150Filipa Cunha               
2000000200200351379241963651915630321070200000000002117Maria Sousa                
2000000100300350890000078901232420544108400000000004721Beatriz Lopes              
2000000100400351012000090123454791585587900000000001008Luis Pacheco               
2000000200500351567000145678906618672387300000000001966Luis Pacheco               
2000000100600359527153005628665281195152900000000003142Filipa Cunha               
2000000100700351394490954220400993134615000000000001092Ines Ferreira              
2000000200800358921910082575703012508493500000000002117Paula Gomes                
2000000100900356198737640522103519818821800000000001949Maria Sousa                
2000000101000352100000901234561710705397700000000003948Filipa Cunha               
2000000101100350616454169850721916976969000000000002503Paula Silva                
2000000201200350223000000000007926473464500000000002587Diogo Matos                
2000000101300351234000789012341248370362100000000001562Ana Costa                  
2000000101400351500000890123452177530037300000000004586Joao Silva                 
2000000101500351678000156789013418031456400000000005510Carlos Pereira             
2000000201600351890000178901232519043171700000000004402Tiago Ribeiro              
2000000201700351901000189012340814495053700000000004234Bruno Teixeira             
2000000201800353722970753060380089121660000000000004738Diogo Matos                
2000000201900350081000678901232417101352200000000004318Maria Sousa                
900000000058650000019
