120241226IPCA Energy               50349493300000000048342000015
2000000200100350223000000000007917661802300000000001633Andre Fonseca              
2000000200200350123000000012341116075303100000000003423Bruno Teixeira             
2000000100300350456000034567897629569257000000000005338Carlos Pereira             
2000000100400350223000001234565718020972800000000002308Helena Araujo              
2000000100500350890000078901232420544108400000000005432Beatriz Lopes              
2000000200600350045000456789018015517828800000000004867Luis Pacheco               
2000000100700358430848452326513422564102000000000002685Ana Costa                  
2000000200800359088356913207897824234808400000000001727Pedro Rocha                
2000000200900352227029075640748123760622400000000001931Ines Ferreira              
2000000201000354132756245181006652764027100000000003925Tiago Ribeiro              
2000000101100352070541909773872813544533700000000001978Maria Sousa                
2000000201200356198737640522103519818821800000000001272Maria Sousa                
2000000201300350123000000000002712920959700000000004349Paula Gomes                
2000000101400353500001012345670717504622000000000002167Bruno Teixeira             
2000000101500350000000000000002913801546500000000005307Filipa Cunha               
900000000048342000015
